{
  "transactions": [
    {
      "hash": "0x08eeb0d3f4493b48b6ac41dcb9bab8322ad9850760f9938e27f0b8b2c85db657",
      "transactionType": "CREATE",
      "contractName": "Counter",
      "contractAddress": "0x5fbdb2315678afecb367f032d93f642f64180aa3",
      "function": null,
      "arguments": null,
      "transaction": {
        "from": "0xf39fd6e51aad88f6f4ce6ab8827279cfffb92266",
        "gas": "0x31c50",
        "value": "0x0",
        "input": "0x6080604052348015600e575f5ffd5b506101e18061001c5f395ff3fe608060405234801561000f575f5ffd5b506004361061003f575f3560e01c80633fb5c1cb146100435780638381f58a1461005f578063d09de08a1461007d575b5f5ffd5b61005d600480360381019061005891906100e4565b610087565b005b610067610090565b604051610074919061011e565b60405180910390f35b610085610095565b005b805f8190555050565b5f5481565b5f5f8154809291906100a690610164565b9190505550565b5f5ffd5b5f819050919050565b6100c3816100b1565b81146100cd575f5ffd5b50565b5f813590506100de816100ba565b92915050565b5f602082840312156100f9576100f86100ad565b5b5f610106848285016100d0565b91505092915050565b610118816100b1565b82525050565b5f6020820190506101315f83018461010f565b92915050565b7f4e487b71000000000000000000000000000000000000000000000000000000005f52601160045260245ffd5b5f61016e826100b1565b91507fffffffffffffffffffffffffffffffffffffffffffffffffffffffffffffffff82036101a05761019f610137565b5b60018201905091905056fea2646970667358221220df4a76c68e7f061f542d26155d08ef6ac6937da6830d06a5a5c3e20d2c78b21164736f6c634300081e0033",
        "nonce": "0x0",
        "chainId": "0x7a69"
      },
      "additionalContracts": [],
      "isFixedGasLimit": false
    },
    {
      "hash": "0xe1318ac81e68e9b1298aae05fab73f0b8951d9ecb6cc9ba81e820d102a34f9de",
      "transactionType": "CALL",
      "contractName": "Counter",
      "contractAddress": "0x5fbdb2315678afecb367f032d93f642f64180aa3",
      "function": "setNumber(uint256)",
      "arguments": [
        "10"
      ],
      "transaction": {
        "from": "0xf39fd6e51aad88f6f4ce6ab8827279cfffb92266",
        "to": "0x5fbdb2315678afecb367f032d93f642f64180aa3",
        "gas": "0xebc3",
        "value": "0x0",
        "input": "0x3fb5c1cb000000000000000000000000000000000000000000000000000000000000000a",
        "nonce": "0x1",
        "chainId": "0x7a69"
      },
      "additionalContracts": [],
      "isFixedGasLimit": false
    },
    {
      "hash": "0x33dccf120b63a598c902afdf34a96730eb120a4dce9a2ea6122341be1308bcdd",
      "transactionType": "CALL",
      "contractName": "Counter",
      "contractAddress": "0x5fbdb2315678afecb367f032d93f642f64180aa3",
      "function": "increment()",
      "arguments": [],
      "transaction": {
        "from": "0xf39fd6e51aad88f6f4ce6ab8827279cfffb92266",
        "to": "0x5fbdb2315678afecb367f032d93f642f64180aa3",
        "gas": "0x8e57",
        "value": "0x0",
        "input": "0xd09de08a",
        "nonce": "0x2",
        "chainId": "0x7a69"
      },
      "additionalContracts": [],
      "isFixedGasLimit": false
    }
  ],
  "receipts": [
    {
      "status": "0x1",
      "cumulativeGasUsed": "0x2648d",
      "logs": [],
      "logsBloom": "0x00000000000000000000000000000000000000000000000000000000000000000000000000000000000000000000000000000000000000000000000000000000000000000000000000000000000000000000000000000000000000000000000000000000000000000000000000000000000000000000000000000000000000000000000000000000000000000000000000000000000000000000000000000000000000000000000000000000000000000000000000000000000000000000000000000000000000000000000000000000000000000000000000000000000000000000000000000000000000000000000000000000000000000000000000000000",
      "type": "0x2",
      "transactionHash": "0x08eeb0d3f4493b48b6ac41dcb9bab8322ad9850760f9938e27f0b8b2c85db657",
      "transactionIndex": "0x0",
      "blockHash": "0xaaeff935432698364fcba5b6e875dc82cbbd85c8c9fe1e116f4de49cafa64534",
      "blockNumber": "0x1",
      "gasUsed": "0x2648d",
      "effectiveGasPrice": "0x3b9aca01",
      "blobGasPrice": "0x1",
      "from": "0xf39fd6e51aad88f6f4ce6ab8827279cfffb92266",
      "to": null,
      "contractAddress": "0x5fbdb2315678afecb367f032d93f642f64180aa3"
    },
    {
      "status": "0x1",
      "cumulativeGasUsed": "0xaab0",
      "logs": [],
      "logsBloom": "0x00000000000000000000000000000000000000000000000000000000000000000000000000000000000000000000000000000000000000000000000000000000000000000000000000000000000000000000000000000000000000000000000000000000000000000000000000000000000000000000000000000000000000000000000000000000000000000000000000000000000000000000000000000000000000000000000000000000000000000000000000000000000000000000000000000000000000000000000000000000000000000000000000000000000000000000000000000000000000000000000000000000000000000000000000000000",
      "type": "0x2",
      "transactionHash": "0xe1318ac81e68e9b1298aae05fab73f0b8951d9ecb6cc9ba81e820d102a34f9de",
      "transactionIndex": "0x0",
      "blockHash": "0xca3c623025f5b3d77ff7c025f6030e30e6327e979fca306cae154212b9a715d4",
      "blockNumber": "0x2",
      "gasUsed": "0xaab0",
      "effectiveGasPrice": "0x343b6158",
      "blobGasPrice": "0x1",
      "from": "0xf39fd6e51aad88f6f4ce6ab8827279cfffb92266",
      "to": "0x5fbdb2315678afecb367f032d93f642f64180aa3",
      "contractAddress": null
    },
    {
      "status": "0x1",
      "cumulativeGasUsed": "0x670e",
      "logs": [],
      "logsBloom": "0x00000000000000000000000000000000000000000000000000000000000000000000000000000000000000000000000000000000000000000000000000000000000000000000000000000000000000000000000000000000000000000000000000000000000000000000000000000000000000000000000000000000000000000000000000000000000000000000000000000000000000000000000000000000000000000000000000000000000000000000000000000000000000000000000000000000000000000000000000000000000000000000000000000000000000000000000000000000000000000000000000000000000000000000000000000000",
      "type": "0x2",
      "transactionHash": "0x33dccf120b63a598c902afdf34a96730eb120a4dce9a2ea6122341be1308bcdd",
      "transactionIndex": "0x0",
      "blockHash": "0x3f0273ae8aab2a0756ade526adace922bcfefa8b8c2890091516cd7bd55c7d06",
      "blockNumber": "0x3",
      "gasUsed": "0x670e",
      "effectiveGasPrice": "0x2db8d3a2",
      "blobGasPrice": "0x1",
      "from": "0xf39fd6e51aad88f6f4ce6ab8827279cfffb92266",
      "to": "0x5fbdb2315678afecb367f032d93f642f64180aa3",
      "contractAddress": null
    }
  ],
  "libraries": [],
  "pending": [],
  "returns": {},
  "timestamp": 1765529103574,
  "chain": 31337,
  "commit": "66eefe9"
}