{
  "transactions": [
    {
      "hash": "0xf28f3b4fc1b9b5cfeff2ae2d3ee70b0493897a022c08a35b4403dc71f1b884e1",
      "transactionType": "CREATE",
      "contractName": "Counter",
      "contractAddress": "0x9fe46736679d2d9a65f0992f2272de9f3c7fa6e0",
      "function": null,
      "arguments": null,
      "transaction": {
        "from": "0xf39fd6e51aad88f6f4ce6ab8827279cfffb92266",
        "gas": "0x31c50",
        "value": "0x0",
        "input": "0x6080604052348015600e575f5ffd5b506101e18061001c5f395ff3fe608060405234801561000f575f5ffd5b506004361061003f575f3560e01c80633fb5c1cb146100435780638381f58a1461005f578063d09de08a1461007d575b5f5ffd5b61005d600480360381019061005891906100e4565b610087565b005b610067610090565b604051610074919061011e565b60405180910390f35b610085610095565b005b805f8190555050565b5f5481565b5f5f8154809291906100a690610164565b9190505550565b5f5ffd5b5f819050919050565b6100c3816100b1565b81146100cd575f5ffd5b50565b5f813590506100de816100ba565b92915050565b5f602082840312156100f9576100f86100ad565b5b5f610106848285016100d0565b91505092915050565b610118816100b1565b82525050565b5f6020820190506101315f83018461010f565b92915050565b7f4e487b71000000000000000000000000000000000000000000000000000000005f52601160045260245ffd5b5f61016e826100b1565b91507fffffffffffffffffffffffffffffffffffffffffffffffffffffffffffffffff82036101a05761019f610137565b5b60018201905091905056fea2646970667358221220df4a76c68e7f061f542d26155d08ef6ac6937da6830d06a5a5c3e20d2c78b21164736f6c634300081e0033",
        "nonce": "0x2",
        "chainId": "0x7a69"
      },
      "additionalContracts": [],
      "isFixedGasLimit": false
    },
    {
      "hash": "0x6de04d31c995e9412889727a733ba466241387205685f03f982e7ee666d08a78",
      "transactionType": "CALL",
      "contractName": "Counter",
      "contractAddress": "0x9fe46736679d2d9a65f0992f2272de9f3c7fa6e0",
      "function": "setNumber(uint256)",
      "arguments": [
        "10"
      ],
      "transaction": {
        "from": "0xf39fd6e51aad88f6f4ce6ab8827279cfffb92266",
        "to": "0x9fe46736679d2d9a65f0992f2272de9f3c7fa6e0",
        "gas": "0xebc3",
        "value": "0x0",
        "input": "0x3fb5c1cb000000000000000000000000000000000000000000000000000000000000000a",
        "nonce": "0x3",
        "chainId": "0x7a69"
      },
      "additionalContracts": [],
      "isFixedGasLimit": false
    },
    {
      "hash": "0xd067658923d3fa0131366c20c97feb4371371c5d9f6a77bbeedd0a14b924483a",
      "transactionType": "CALL",
      "contractName": "Counter",
      "contractAddress": "0x9fe46736679d2d9a65f0992f2272de9f3c7fa6e0",
      "function": "increment()",
      "arguments": [],
      "transaction": {
        "from": "0xf39fd6e51aad88f6f4ce6ab8827279cfffb92266",
        "to": "0x9fe46736679d2d9a65f0992f2272de9f3c7fa6e0",
        "gas": "0x8e57",
        "value": "0x0",
        "input": "0xd09de08a",
        "nonce": "0x4",
        "chainId": "0x7a69"
      },
      "additionalContracts": [],
      "isFixedGasLimit": false
    }
  ],
  "receipts": [
    {
      "status": "0x1",
      "cumulativeGasUsed": "0x2648d",
      "logs": [],
      "logsBloom": "0x00000000000000000000000000000000000000000000000000000000000000000000000000000000000000000000000000000000000000000000000000000000000000000000000000000000000000000000000000000000000000000000000000000000000000000000000000000000000000000000000000000000000000000000000000000000000000000000000000000000000000000000000000000000000000000000000000000000000000000000000000000000000000000000000000000000000000000000000000000000000000000000000000000000000000000000000000000000000000000000000000000000000000000000000000000000",
      "type": "0x2",
      "transactionHash": "0xf28f3b4fc1b9b5cfeff2ae2d3ee70b0493897a022c08a35b4403dc71f1b884e1",
      "transactionIndex": "0x0",
      "blockHash": "0x5f659903189dddbe3914de1758eb2f25d317f52b35e162810ab7a9ced3498eb4",
      "blockNumber": "0x3",
      "gasUsed": "0x2648d",
      "effectiveGasPrice": "0x2dc56e5d",
      "blobGasPrice": "0x1",
      "from": "0xf39fd6e51aad88f6f4ce6ab8827279cfffb92266",
      "to": null,
      "contractAddress": "0x9fe46736679d2d9a65f0992f2272de9f3c7fa6e0"
    },
    {
      "status": "0x1",
      "cumulativeGasUsed": "0xaab0",
      "logs": [],
      "logsBloom": "0x00000000000000000000000000000000000000000000000000000000000000000000000000000000000000000000000000000000000000000000000000000000000000000000000000000000000000000000000000000000000000000000000000000000000000000000000000000000000000000000000000000000000000000000000000000000000000000000000000000000000000000000000000000000000000000000000000000000000000000000000000000000000000000000000000000000000000000000000000000000000000000000000000000000000000000000000000000000000000000000000000000000000000000000000000000000",
      "type": "0x2",
      "transactionHash": "0x6de04d31c995e9412889727a733ba466241387205685f03f982e7ee666d08a78",
      "transactionIndex": "0x0",
      "blockHash": "0xea14628d1608f8157c4e42b8c684cd5e8731c4b7e09861f9df8cc95d19b0cbab",
      "blockNumber": "0x4",
      "gasUsed": "0xaab0",
      "effectiveGasPrice": "0x281c1074",
      "blobGasPrice": "0x1",
      "from": "0xf39fd6e51aad88f6f4ce6ab8827279cfffb92266",
      "to": "0x9fe46736679d2d9a65f0992f2272de9f3c7fa6e0",
      "contractAddress": null
    },
    {
      "status": "0x1",
      "cumulativeGasUsed": "0x670e",
      "logs": [],
      "logsBloom": "0x00000000000000000000000000000000000000000000000000000000000000000000000000000000000000000000000000000000000000000000000000000000000000000000000000000000000000000000000000000000000000000000000000000000000000000000000000000000000000000000000000000000000000000000000000000000000000000000000000000000000000000000000000000000000000000000000000000000000000000000000000000000000000000000000000000000000000000000000000000000000000000000000000000000000000000000000000000000000000000000000000000000000000000000000000000000",
      "type": "0x2",
      "transactionHash": "0xd067658923d3fa0131366c20c97feb4371371c5d9f6a77bbeedd0a14b924483a",
      "transactionIndex": "0x0",
      "blockHash": "0x97bf355fad820eb1bd05baee5be54a76039ac12162d8c31695f254da4d16c178",
      "blockNumber": "0x5",
      "gasUsed": "0x670e",
      "effectiveGasPrice": "0x231c4b92",
      "blobGasPrice": "0x1",
      "from": "0xf39fd6e51aad88f6f4ce6ab8827279cfffb92266",
      "to": "0x9fe46736679d2d9a65f0992f2272de9f3c7fa6e0",
      "contractAddress": null
    }
  ],
  "libraries": [],
  "pending": [],
  "returns": {},
  "timestamp": 1765527983772,
  "chain": 31337,
  "commit": "66eefe9"
}