{
  "transactions": [
    {
      "hash": "0x93f6c34581b09685b6a3a1c3bc67a5870c3f7a0791e3978c60ec214b421cf6df",
      "transactionType": "CREATE",
      "contractName": "Counter",
      "contractAddress": "0x5fc8d32690cc91d4c39d9d3abcbd16989f875707",
      "function": null,
      "arguments": null,
      "transaction": {
        "from": "0xf39fd6e51aad88f6f4ce6ab8827279cfffb92266",
        "gas": "0x31c50",
        "value": "0x0",
        "input": "0x6080604052348015600e575f5ffd5b506101e18061001c5f395ff3fe608060405234801561000f575f5ffd5b506004361061003f575f3560e01c80633fb5c1cb146100435780638381f58a1461005f578063d09de08a1461007d575b5f5ffd5b61005d600480360381019061005891906100e4565b610087565b005b610067610090565b604051610074919061011e565b60405180910390f35b610085610095565b005b805f8190555050565b5f5481565b5f5f8154809291906100a690610164565b9190505550565b5f5ffd5b5f819050919050565b6100c3816100b1565b81146100cd575f5ffd5b50565b5f813590506100de816100ba565b92915050565b5f602082840312156100f9576100f86100ad565b5b5f610106848285016100d0565b91505092915050565b610118816100b1565b82525050565b5f6020820190506101315f83018461010f565b92915050565b7f4e487b71000000000000000000000000000000000000000000000000000000005f52601160045260245ffd5b5f61016e826100b1565b91507fffffffffffffffffffffffffffffffffffffffffffffffffffffffffffffffff82036101a05761019f610137565b5b60018201905091905056fea2646970667358221220df4a76c68e7f061f542d26155d08ef6ac6937da6830d06a5a5c3e20d2c78b21164736f6c634300081e0033",
        "nonce": "0x5",
        "chainId": "0x7a69"
      },
      "additionalContracts": [],
      "isFixedGasLimit": false
    },
    {
      "hash": "0x61fbc7176fe401ab90c5b814d5d335d8de45e5d443424684a779db7d04278bee",
      "transactionType": "CALL",
      "contractName": "Counter",
      "contractAddress": "0x5fc8d32690cc91d4c39d9d3abcbd16989f875707",
      "function": "setNumber(uint256)",
      "arguments": [
        "10"
      ],
      "transaction": {
        "from": "0xf39fd6e51aad88f6f4ce6ab8827279cfffb92266",
        "to": "0x5fc8d32690cc91d4c39d9d3abcbd16989f875707",
        "gas": "0xebc3",
        "value": "0x0",
        "input": "0x3fb5c1cb000000000000000000000000000000000000000000000000000000000000000a",
        "nonce": "0x6",
        "chainId": "0x7a69"
      },
      "additionalContracts": [],
      "isFixedGasLimit": false
    },
    {
      "hash": "0xc4107fcf7e180ef487e67146b121f66e1df70143e11a3106cdcc643d90a53a23",
      "transactionType": "CALL",
      "contractName": "Counter",
      "contractAddress": "0x5fc8d32690cc91d4c39d9d3abcbd16989f875707",
      "function": "increment()",
      "arguments": [],
      "transaction": {
        "from": "0xf39fd6e51aad88f6f4ce6ab8827279cfffb92266",
        "to": "0x5fc8d32690cc91d4c39d9d3abcbd16989f875707",
        "gas": "0x8e57",
        "value": "0x0",
        "input": "0xd09de08a",
        "nonce": "0x7",
        "chainId": "0x7a69"
      },
      "additionalContracts": [],
      "isFixedGasLimit": false
    }
  ],
  "receipts": [
    {
      "status": "0x1",
      "cumulativeGasUsed": "0x2648d",
      "logs": [],
      "logsBloom": "0x00000000000000000000000000000000000000000000000000000000000000000000000000000000000000000000000000000000000000000000000000000000000000000000000000000000000000000000000000000000000000000000000000000000000000000000000000000000000000000000000000000000000000000000000000000000000000000000000000000000000000000000000000000000000000000000000000000000000000000000000000000000000000000000000000000000000000000000000000000000000000000000000000000000000000000000000000000000000000000000000000000000000000000000000000000000",
      "type": "0x2",
      "transactionHash": "0x93f6c34581b09685b6a3a1c3bc67a5870c3f7a0791e3978c60ec214b421cf6df",
      "transactionIndex": "0x0",
      "blockHash": "0x6eda5e49b6c873622deafbbd76bf251269dd49bc4fee69c08fbedbe2dc3c18de",
      "blockNumber": "0x6",
      "gasUsed": "0x2648d",
      "effectiveGasPrice": "0x1ebabc01",
      "blobGasPrice": "0x1",
      "from": "0xf39fd6e51aad88f6f4ce6ab8827279cfffb92266",
      "to": null,
      "contractAddress": "0x5fc8d32690cc91d4c39d9d3abcbd16989f875707"
    },
    {
      "status": "0x1",
      "cumulativeGasUsed": "0xaab0",
      "logs": [],
      "logsBloom": "0x00000000000000000000000000000000000000000000000000000000000000000000000000000000000000000000000000000000000000000000000000000000000000000000000000000000000000000000000000000000000000000000000000000000000000000000000000000000000000000000000000000000000000000000000000000000000000000000000000000000000000000000000000000000000000000000000000000000000000000000000000000000000000000000000000000000000000000000000000000000000000000000000000000000000000000000000000000000000000000000000000000000000000000000000000000000",
      "type": "0x2",
      "transactionHash": "0x61fbc7176fe401ab90c5b814d5d335d8de45e5d443424684a779db7d04278bee",
      "transactionIndex": "0x0",
      "blockHash": "0xadf4d82c6db957b135c003a172f7a7d59c4415972efbc5dbaca15544ebb3cfa1",
      "blockNumber": "0x7",
      "gasUsed": "0xaab0",
      "effectiveGasPrice": "0x1aedac33",
      "blobGasPrice": "0x1",
      "from": "0xf39fd6e51aad88f6f4ce6ab8827279cfffb92266",
      "to": "0x5fc8d32690cc91d4c39d9d3abcbd16989f875707",
      "contractAddress": null
    },
    {
      "status": "0x1",
      "cumulativeGasUsed": "0x111be",
      "logs": [],
      "logsBloom": "0x00000000000000000000000000000000000000000000000000000000000000000000000000000000000000000000000000000000000000000000000000000000000000000000000000000000000000000000000000000000000000000000000000000000000000000000000000000000000000000000000000000000000000000000000000000000000000000000000000000000000000000000000000000000000000000000000000000000000000000000000000000000000000000000000000000000000000000000000000000000000000000000000000000000000000000000000000000000000000000000000000000000000000000000000000000000",
      "type": "0x2",
      "transactionHash": "0xc4107fcf7e180ef487e67146b121f66e1df70143e11a3106cdcc643d90a53a23",
      "transactionIndex": "0x1",
      "blockHash": "0xadf4d82c6db957b135c003a172f7a7d59c4415972efbc5dbaca15544ebb3cfa1",
      "blockNumber": "0x7",
      "gasUsed": "0x670e",
      "effectiveGasPrice": "0x1aedac33",
      "blobGasPrice": "0x1",
      "from": "0xf39fd6e51aad88f6f4ce6ab8827279cfffb92266",
      "to": "0x5fc8d32690cc91d4c39d9d3abcbd16989f875707",
      "contractAddress": null
    }
  ],
  "libraries": [],
  "pending": [],
  "returns": {},
  "timestamp": 1765528012599,
  "chain": 31337,
  "commit": "66eefe9"
}