{
  "transactions": [
    {
      "hash": "0x4e2f4323c7d8b257aefd179b467f1fcb22d7a71090e84b108a53e74606bb8b03",
      "transactionType": "CREATE",
      "contractName": "Counter",
      "contractAddress": "0x97d242f2cac47edab1d7eb81f4693b506f542d6b",
      "function": null,
      "arguments": null,
      "transaction": {
        "from": "0xf39fd6e51aad88f6f4ce6ab8827279cfffb92266",
        "gas": "0x31c50",
        "value": "0x0",
        "input": "0x6080604052348015600e575f5ffd5b506101e18061001c5f395ff3fe608060405234801561000f575f5ffd5b506004361061003f575f3560e01c80633fb5c1cb146100435780638381f58a1461005f578063d09de08a1461007d575b5f5ffd5b61005d600480360381019061005891906100e4565b610087565b005b610067610090565b604051610074919061011e565b60405180910390f35b610085610095565b005b805f8190555050565b5f5481565b5f5f8154809291906100a690610164565b9190505550565b5f5ffd5b5f819050919050565b6100c3816100b1565b81146100cd575f5ffd5b50565b5f813590506100de816100ba565b92915050565b5f602082840312156100f9576100f86100ad565b5b5f610106848285016100d0565b91505092915050565b610118816100b1565b82525050565b5f6020820190506101315f83018461010f565b92915050565b7f4e487b71000000000000000000000000000000000000000000000000000000005f52601160045260245ffd5b5f61016e826100b1565b91507fffffffffffffffffffffffffffffffffffffffffffffffffffffffffffffffff82036101a05761019f610137565b5b60018201905091905056fea2646970667358221220df4a76c68e7f061f542d26155d08ef6ac6937da6830d06a5a5c3e20d2c78b21164736f6c634300081e0033",
        "nonce": "0xa038",
        "chainId": "0x2105"
      },
      "additionalContracts": [],
      "isFixedGasLimit": false
    },
    {
      "hash": "0xa775bf01088e5c52be07d4b2f2c890dc9e6b0e2a1b35d0d1b289ea8797e204ca",
      "transactionType": "CALL",
      "contractName": "Counter",
      "contractAddress": "0x97d242f2cac47edab1d7eb81f4693b506f542d6b",
      "function": "setNumber(uint256)",
      "arguments": [
        "10"
      ],
      "transaction": {
        "from": "0xf39fd6e51aad88f6f4ce6ab8827279cfffb92266",
        "to": "0x97d242f2cac47edab1d7eb81f4693b506f542d6b",
        "gas": "0xebc3",
        "value": "0x0",
        "input": "0x3fb5c1cb000000000000000000000000000000000000000000000000000000000000000a",
        "nonce": "0xa039",
        "chainId": "0x2105"
      },
      "additionalContracts": [],
      "isFixedGasLimit": false
    },
    {
      "hash": "0xc60bb88ae8a769b9a8bebbde9dd2003462f779dc48b5bbdc9ef7cff7229cc80d",
      "transactionType": "CALL",
      "contractName": "Counter",
      "contractAddress": "0x97d242f2cac47edab1d7eb81f4693b506f542d6b",
      "function": "increment()",
      "arguments": [],
      "transaction": {
        "from": "0xf39fd6e51aad88f6f4ce6ab8827279cfffb92266",
        "to": "0x97d242f2cac47edab1d7eb81f4693b506f542d6b",
        "gas": "0x8e57",
        "value": "0x0",
        "input": "0xd09de08a",
        "nonce": "0xa03a",
        "chainId": "0x2105"
      },
      "additionalContracts": [],
      "isFixedGasLimit": false
    }
  ],
  "receipts": [
    {
      "status": "0x1",
      "cumulativeGasUsed": "0x2648d",
      "logs": [],
      "logsBloom": "0x00000000000000000000000000000000000000000000000000000000000000000000000000000000000000000000000000000000000000000000000000000000000000000000000000000000000000000000000000000000000000000000000000000000000000000000000000000000000000000000000000000000000000000000000000000000000000000000000000000000000000000000000000000000000000000000000000000000000000000000000000000000000000000000000000000000000000000000000000000000000000000000000000000000000000000000000000000000000000000000000000000000000000000000000000000000",
      "type": "0x2",
      "transactionHash": "0x4e2f4323c7d8b257aefd179b467f1fcb22d7a71090e84b108a53e74606bb8b03",
      "transactionIndex": "0x0",
      "blockHash": "0xba348c4aa0f527ec8318909f831aa8be7fb21ad9f8f174d220cb6f0ad5e496f7",
      "blockNumber": "0x258bef9",
      "gasUsed": "0x2648d",
      "effectiveGasPrice": "0x111fb8",
      "blobGasPrice": "0x9ad",
      "from": "0xf39fd6e51aad88f6f4ce6ab8827279cfffb92266",
      "to": null,
      "contractAddress": "0x97d242f2cac47edab1d7eb81f4693b506f542d6b"
    },
    {
      "status": "0x1",
      "cumulativeGasUsed": "0xaab0",
      "logs": [],
      "logsBloom": "0x00000000000000000000000000000000000000000000000000000000000000000000000000000000000000000000000000000000000000000000000000000000000000000000000000000000000000000000000000000000000000000000000000000000000000000000000000000000000000000000000000000000000000000000000000000000000000000000000000000000000000000000000000000000000000000000000000000000000000000000000000000000000000000000000000000000000000000000000000000000000000000000000000000000000000000000000000000000000000000000000000000000000000000000000000000000",
      "type": "0x2",
      "transactionHash": "0xa775bf01088e5c52be07d4b2f2c890dc9e6b0e2a1b35d0d1b289ea8797e204ca",
      "transactionIndex": "0x0",
      "blockHash": "0x0a12df6af44098f6c95d42612841e610fc5d13fca66eaa6fc3487d2b0b19f4b2",
      "blockNumber": "0x258befa",
      "gasUsed": "0xaab0",
      "effectiveGasPrice": "0xf2d1b",
      "blobGasPrice": "0x89a",
      "from": "0xf39fd6e51aad88f6f4ce6ab8827279cfffb92266",
      "to": "0x97d242f2cac47edab1d7eb81f4693b506f542d6b",
      "contractAddress": null
    },
    {
      "status": "0x1",
      "cumulativeGasUsed": "0x111be",
      "logs": [],
      "logsBloom": "0x00000000000000000000000000000000000000000000000000000000000000000000000000000000000000000000000000000000000000000000000000000000000000000000000000000000000000000000000000000000000000000000000000000000000000000000000000000000000000000000000000000000000000000000000000000000000000000000000000000000000000000000000000000000000000000000000000000000000000000000000000000000000000000000000000000000000000000000000000000000000000000000000000000000000000000000000000000000000000000000000000000000000000000000000000000000",
      "type": "0x2",
      "transactionHash": "0xc60bb88ae8a769b9a8bebbde9dd2003462f779dc48b5bbdc9ef7cff7229cc80d",
      "transactionIndex": "0x1",
      "blockHash": "0x0a12df6af44098f6c95d42612841e610fc5d13fca66eaa6fc3487d2b0b19f4b2",
      "blockNumber": "0x258befa",
      "gasUsed": "0x670e",
      "effectiveGasPrice": "0xf2d1b",
      "blobGasPrice": "0x89a",
      "from": "0xf39fd6e51aad88f6f4ce6ab8827279cfffb92266",
      "to": "0x97d242f2cac47edab1d7eb81f4693b506f542d6b",
      "contractAddress": null
    }
  ],
  "libraries": [],
  "pending": [],
  "returns": {},
  "timestamp": 1765530482495,
  "chain": 8453,
  "commit": "66eefe9"
}